{
    "_format": "hh-sol-artifact-1",
    "contractName": "MccmNFT",
    "sourceName": "contracts/MccmNFT.sol",
    "abi": [
        {
            "inputs": [],
            "stateMutability": "nonpayable",
            "type": "constructor"
        },
        {
            "anonymous": false,
            "inputs": [
                {
                    "indexed": true,
                    "internalType": "address",
                    "name": "owner",
                    "type": "address"
                },
                {
                    "indexed": true,
                    "internalType": "address",
                    "name": "approved",
                    "type": "address"
                },
                {
                    "indexed": true,
                    "internalType": "uint256",
                    "name": "tokenId",
                    "type": "uint256"
                }
            ],
            "name": "Approval",
            "type": "event"
        },
        {
            "anonymous": false,
            "inputs": [
                {
                    "indexed": true,
                    "internalType": "address",
                    "name": "owner",
                    "type": "address"
                },
                {
                    "indexed": true,
                    "internalType": "address",
                    "name": "operator",
                    "type": "address"
                },
                {
                    "indexed": false,
                    "internalType": "bool",
                    "name": "approved",
                    "type": "bool"
                }
            ],
            "name": "ApprovalForAll",
            "type": "event"
        },
        {
            "anonymous": false,
            "inputs": [
                {
                    "indexed": true,
                    "internalType": "address",
                    "name": "previousOwner",
                    "type": "address"
                },
                {
                    "indexed": true,
                    "internalType": "address",
                    "name": "newOwner",
                    "type": "address"
                }
            ],
            "name": "OwnershipTransferred",
            "type": "event"
        },
        {
            "anonymous": false,
            "inputs": [
                {
                    "indexed": true,
                    "internalType": "address",
                    "name": "from",
                    "type": "address"
                },
                {
                    "indexed": true,
                    "internalType": "address",
                    "name": "to",
                    "type": "address"
                },
                {
                    "indexed": true,
                    "internalType": "uint256",
                    "name": "tokenId",
                    "type": "uint256"
                }
            ],
            "name": "Transfer",
            "type": "event"
        },
        {
            "inputs": [],
            "name": "MAX_SUPPLY",
            "outputs": [
                {
                    "internalType": "uint256",
                    "name": "",
                    "type": "uint256"
                }
            ],
            "stateMutability": "view",
            "type": "function"
        },
        {
            "inputs": [],
            "name": "_isSaleActive",
            "outputs": [
                {
                    "internalType": "bool",
                    "name": "",
                    "type": "bool"
                }
            ],
            "stateMutability": "view",
            "type": "function"
        },
        {
            "inputs": [
                {
                    "internalType": "address",
                    "name": "",
                    "type": "address"
                }
            ],
            "name": "addressMintMccmBalance",
            "outputs": [
                {
                    "internalType": "uint256",
                    "name": "",
                    "type": "uint256"
                }
            ],
            "stateMutability": "view",
            "type": "function"
        },
        {
            "inputs": [
                {
                    "internalType": "address",
                    "name": "to",
                    "type": "address"
                },
                {
                    "internalType": "uint256",
                    "name": "tokenId",
                    "type": "uint256"
                }
            ],
            "name": "approve",
            "outputs": [],
            "stateMutability": "nonpayable",
            "type": "function"
        },
        {
            "inputs": [
                {
                    "internalType": "address",
                    "name": "owner",
                    "type": "address"
                }
            ],
            "name": "balanceOf",
            "outputs": [
                {
                    "internalType": "uint256",
                    "name": "",
                    "type": "uint256"
                }
            ],
            "stateMutability": "view",
            "type": "function"
        },
        {
            "inputs": [],
            "name": "baseExtension",
            "outputs": [
                {
                    "internalType": "string",
                    "name": "",
                    "type": "string"
                }
            ],
            "stateMutability": "view",
            "type": "function"
        },
        {
            "inputs": [],
            "name": "flipSaleActive",
            "outputs": [],
            "stateMutability": "nonpayable",
            "type": "function"
        },
        {
            "inputs": [
                {
                    "internalType": "uint256",
                    "name": "tokenId",
                    "type": "uint256"
                }
            ],
            "name": "getApproved",
            "outputs": [
                {
                    "internalType": "address",
                    "name": "",
                    "type": "address"
                }
            ],
            "stateMutability": "view",
            "type": "function"
        },
        {
            "inputs": [
                {
                    "internalType": "address",
                    "name": "owner",
                    "type": "address"
                },
                {
                    "internalType": "address",
                    "name": "operator",
                    "type": "address"
                }
            ],
            "name": "isApprovedForAll",
            "outputs": [
                {
                    "internalType": "bool",
                    "name": "",
                    "type": "bool"
                }
            ],
            "stateMutability": "view",
            "type": "function"
        },
        {
            "inputs": [],
            "name": "maxMint",
            "outputs": [
                {
                    "internalType": "uint256",
                    "name": "",
                    "type": "uint256"
                }
            ],
            "stateMutability": "view",
            "type": "function"
        },
        {
            "inputs": [
                {
                    "internalType": "uint256",
                    "name": "tokenQuantity",
                    "type": "uint256"
                }
            ],
            "name": "mintMccmMeta",
            "outputs": [],
            "stateMutability": "payable",
            "type": "function"
        },
        {
            "inputs": [],
            "name": "mintPrice",
            "outputs": [
                {
                    "internalType": "uint256",
                    "name": "",
                    "type": "uint256"
                }
            ],
            "stateMutability": "view",
            "type": "function"
        },
        {
            "inputs": [],
            "name": "name",
            "outputs": [
                {
                    "internalType": "string",
                    "name": "",
                    "type": "string"
                }
            ],
            "stateMutability": "view",
            "type": "function"
        },
        {
            "inputs": [],
            "name": "owner",
            "outputs": [
                {
                    "internalType": "address",
                    "name": "",
                    "type": "address"
                }
            ],
            "stateMutability": "view",
            "type": "function"
        },
        {
            "inputs": [
                {
                    "internalType": "uint256",
                    "name": "tokenId",
                    "type": "uint256"
                }
            ],
            "name": "ownerOf",
            "outputs": [
                {
                    "internalType": "address",
                    "name": "",
                    "type": "address"
                }
            ],
            "stateMutability": "view",
            "type": "function"
        },
        {
            "inputs": [],
            "name": "renounceOwnership",
            "outputs": [],
            "stateMutability": "nonpayable",
            "type": "function"
        },
        {
            "inputs": [
                {
                    "internalType": "address",
                    "name": "from",
                    "type": "address"
                },
                {
                    "internalType": "address",
                    "name": "to",
                    "type": "address"
                },
                {
                    "internalType": "uint256",
                    "name": "tokenId",
                    "type": "uint256"
                }
            ],
            "name": "safeTransferFrom",
            "outputs": [],
            "stateMutability": "nonpayable",
            "type": "function"
        },
        {
            "inputs": [
                {
                    "internalType": "address",
                    "name": "from",
                    "type": "address"
                },
                {
                    "internalType": "address",
                    "name": "to",
                    "type": "address"
                },
                {
                    "internalType": "uint256",
                    "name": "tokenId",
                    "type": "uint256"
                },
                {
                    "internalType": "bytes",
                    "name": "data",
                    "type": "bytes"
                }
            ],
            "name": "safeTransferFrom",
            "outputs": [],
            "stateMutability": "nonpayable",
            "type": "function"
        },
        {
            "inputs": [
                {
                    "internalType": "address",
                    "name": "operator",
                    "type": "address"
                },
                {
                    "internalType": "bool",
                    "name": "approved",
                    "type": "bool"
                }
            ],
            "name": "setApprovalForAll",
            "outputs": [],
            "stateMutability": "nonpayable",
            "type": "function"
        },
        {
            "inputs": [
                {
                    "internalType": "string",
                    "name": "_newBaseExtension",
                    "type": "string"
                }
            ],
            "name": "setBaseExtension",
            "outputs": [],
            "stateMutability": "nonpayable",
            "type": "function"
        },
        {
            "inputs": [
                {
                    "internalType": "string",
                    "name": "_newBaseURI",
                    "type": "string"
                }
            ],
            "name": "setBaseURI",
            "outputs": [],
            "stateMutability": "nonpayable",
            "type": "function"
        },
        {
            "inputs": [
                {
                    "internalType": "uint256",
                    "name": "_maxMint",
                    "type": "uint256"
                }
            ],
            "name": "setMaxMint",
            "outputs": [],
            "stateMutability": "nonpayable",
            "type": "function"
        },
        {
            "inputs": [
                {
                    "internalType": "uint256",
                    "name": "_mintPrice",
                    "type": "uint256"
                }
            ],
            "name": "setMintPrice",
            "outputs": [],
            "stateMutability": "nonpayable",
            "type": "function"
        },
        {
            "inputs": [
                {
                    "internalType": "bytes4",
                    "name": "interfaceId",
                    "type": "bytes4"
                }
            ],
            "name": "supportsInterface",
            "outputs": [
                {
                    "internalType": "bool",
                    "name": "",
                    "type": "bool"
                }
            ],
            "stateMutability": "view",
            "type": "function"
        },
        {
            "inputs": [],
            "name": "symbol",
            "outputs": [
                {
                    "internalType": "string",
                    "name": "",
                    "type": "string"
                }
            ],
            "stateMutability": "view",
            "type": "function"
        },
        {
            "inputs": [
                {
                    "internalType": "uint256",
                    "name": "index",
                    "type": "uint256"
                }
            ],
            "name": "tokenByIndex",
            "outputs": [
                {
                    "internalType": "uint256",
                    "name": "",
                    "type": "uint256"
                }
            ],
            "stateMutability": "view",
            "type": "function"
        },
        {
            "inputs": [
                {
                    "internalType": "address",
                    "name": "owner",
                    "type": "address"
                },
                {
                    "internalType": "uint256",
                    "name": "index",
                    "type": "uint256"
                }
            ],
            "name": "tokenOfOwnerByIndex",
            "outputs": [
                {
                    "internalType": "uint256",
                    "name": "",
                    "type": "uint256"
                }
            ],
            "stateMutability": "view",
            "type": "function"
        },
        {
            "inputs": [
                {
                    "internalType": "uint256",
                    "name": "tokenId",
                    "type": "uint256"
                }
            ],
            "name": "tokenURI",
            "outputs": [
                {
                    "internalType": "string",
                    "name": "",
                    "type": "string"
                }
            ],
            "stateMutability": "view",
            "type": "function"
        },
        {
            "inputs": [],
            "name": "totalSupply",
            "outputs": [
                {
                    "internalType": "uint256",
                    "name": "",
                    "type": "uint256"
                }
            ],
            "stateMutability": "view",
            "type": "function"
        },
        {
            "inputs": [
                {
                    "internalType": "address",
                    "name": "from",
                    "type": "address"
                },
                {
                    "internalType": "address",
                    "name": "to",
                    "type": "address"
                },
                {
                    "internalType": "uint256",
                    "name": "tokenId",
                    "type": "uint256"
                }
            ],
            "name": "transferFrom",
            "outputs": [],
            "stateMutability": "nonpayable",
            "type": "function"
        },
        {
            "inputs": [
                {
                    "internalType": "address",
                    "name": "newOwner",
                    "type": "address"
                }
            ],
            "name": "transferOwnership",
            "outputs": [],
            "stateMutability": "nonpayable",
            "type": "function"
        },
        {
            "inputs": [
                {
                    "internalType": "address",
                    "name": "to",
                    "type": "address"
                }
            ],
            "name": "withdraw",
            "outputs": [],
            "stateMutability": "nonpayable",
            "type": "function"
        }
    ],
    "bytecode": "0x60806040526000600c60006101000a81548160ff021916908315150217905550660aa87bee538000600d556014600e556040518060400160405280600581526020017f2e6a736f6e000000000000000000000000000000000000000000000000000000815250601090805190602001906200007c92919062000227565b503480156200008a57600080fd5b506040518060400160405280600981526020017f4d6f6f6d20636c756200000000000000000000000000000000000000000000008152506040518060400160405280600281526020017f4d4300000000000000000000000000000000000000000000000000000000000081525081600090805190602001906200010f92919062000227565b5080600190805190602001906200012892919062000227565b5050506200014b6200013f6200015960201b60201c565b6200016160201b60201c565b6001600b819055506200033b565b600033905090565b6000600a60009054906101000a900473ffffffffffffffffffffffffffffffffffffffff16905081600a60006101000a81548173ffffffffffffffffffffffffffffffffffffffff021916908373ffffffffffffffffffffffffffffffffffffffff1602179055508173ffffffffffffffffffffffffffffffffffffffff168173ffffffffffffffffffffffffffffffffffffffff167f8be0079c531659141344cd1fd0a4f28419497f9722a3daafe3b4186f6b6457e060405160405180910390a35050565b828054620002359062000306565b90600052602060002090601f016020900481019282620002595760008555620002a5565b82601f106200027457805160ff1916838001178555620002a5565b82800160010185558215620002a5579182015b82811115620002a457825182559160200191906001019062000287565b5b509050620002b49190620002b8565b5090565b5b80821115620002d3576000816000905550600101620002b9565b5090565b7f4e487b7100000000000000000000000000000000000000000000000000000000600052602260045260246000fd5b600060028204905060018216806200031f57607f821691505b602082108103620003355762000334620002d7565b5b50919050565b613fcf806200034b6000396000f3fe6080604052600436106101e35760003560e01c80637080d6fc11610102578063c668286211610095578063de8b51e111610064578063de8b51e1146106f7578063e985e9c51461070e578063f2fde38b1461074b578063f4a0a52814610774576101e3565b8063c66828621461064a578063c87b56dd14610675578063d9886d3c146106b2578063da3ef23f146106ce576101e3565b80638da5cb5b116100d15780638da5cb5b146105a257806395d89b41146105cd578063a22cb465146105f8578063b88d4fde14610621576101e3565b80637080d6fc146104f857806370a0823114610523578063715018a6146105605780637501f74114610577576101e3565b80633a915d201161017a578063547520fe11610149578063547520fe1461043e57806355f804b3146104675780636352211e146104905780636817c76c146104cd576101e3565b80633a915d201461037257806342842e0e146103af5780634f6ccce7146103d857806351cff8d914610415576101e3565b806318160ddd116101b657806318160ddd146102b657806323b872dd146102e15780632f745c591461030a57806332cb6b0c14610347576101e3565b806301ffc9a7146101e857806306fdde0314610225578063081812fc14610250578063095ea7b31461028d575b600080fd5b3480156101f457600080fd5b5061020f600480360381019061020a9190612996565b61079d565b60405161021c91906129de565b60405180910390f35b34801561023157600080fd5b5061023a610817565b6040516102479190612a92565b60405180910390f35b34801561025c57600080fd5b5061027760048036038101906102729190612aea565b6108a9565b6040516102849190612b58565b60405180910390f35b34801561029957600080fd5b506102b460048036038101906102af9190612b9f565b6108ef565b005b3480156102c257600080fd5b506102cb610a06565b6040516102d89190612bee565b60405180910390f35b3480156102ed57600080fd5b5061030860048036038101906103039190612c09565b610a13565b005b34801561031657600080fd5b50610331600480360381019061032c9190612b9f565b610a73565b60405161033e9190612bee565b60405180910390f35b34801561035357600080fd5b5061035c610b18565b6040516103699190612bee565b60405180910390f35b34801561037e57600080fd5b5061039960048036038101906103949190612c5c565b610b1d565b6040516103a69190612bee565b60405180910390f35b3480156103bb57600080fd5b506103d660048036038101906103d19190612c09565b610b35565b005b3480156103e457600080fd5b506103ff60048036038101906103fa9190612aea565b610b55565b60405161040c9190612bee565b60405180910390f35b34801561042157600080fd5b5061043c60048036038101906104379190612c5c565b610bc6565b005b34801561044a57600080fd5b5061046560048036038101906104609190612aea565b610c73565b005b34801561047357600080fd5b5061048e60048036038101906104899190612dbe565b610c85565b005b34801561049c57600080fd5b506104b760048036038101906104b29190612aea565b610ca7565b6040516104c49190612b58565b60405180910390f35b3480156104d957600080fd5b506104e2610d58565b6040516104ef9190612bee565b60405180910390f35b34801561050457600080fd5b5061050d610d5e565b60405161051a91906129de565b60405180910390f35b34801561052f57600080fd5b5061054a60048036038101906105459190612c5c565b610d71565b6040516105579190612bee565b60405180910390f35b34801561056c57600080fd5b50610575610e28565b005b34801561058357600080fd5b5061058c610e3c565b6040516105999190612bee565b60405180910390f35b3480156105ae57600080fd5b506105b7610e42565b6040516105c49190612b58565b60405180910390f35b3480156105d957600080fd5b506105e2610e6c565b6040516105ef9190612a92565b60405180910390f35b34801561060457600080fd5b5061061f600480360381019061061a9190612e33565b610efe565b005b34801561062d57600080fd5b5061064860048036038101906106439190612f14565b610f14565b005b34801561065657600080fd5b5061065f610f76565b60405161066c9190612a92565b60405180910390f35b34801561068157600080fd5b5061069c60048036038101906106979190612aea565b611004565b6040516106a99190612a92565b60405180910390f35b6106cc60048036038101906106c79190612aea565b611179565b005b3480156106da57600080fd5b506106f560048036038101906106f09190612dbe565b61138e565b005b34801561070357600080fd5b5061070c6113b0565b005b34801561071a57600080fd5b5061073560048036038101906107309190612f97565b6113e4565b60405161074291906129de565b60405180910390f35b34801561075757600080fd5b50610772600480360381019061076d9190612c5c565b611478565b005b34801561078057600080fd5b5061079b60048036038101906107969190612aea565b6114fb565b005b60007f780e9d63000000000000000000000000000000000000000000000000000000007bffffffffffffffffffffffffffffffffffffffffffffffffffffffff1916827bffffffffffffffffffffffffffffffffffffffffffffffffffffffff19161480610810575061080f8261150d565b5b9050919050565b60606000805461082690613006565b80601f016020809104026020016040519081016040528092919081815260200182805461085290613006565b801561089f5780601f106108745761010080835404028352916020019161089f565b820191906000526020600020905b81548152906001019060200180831161088257829003601f168201915b5050505050905090565b60006108b4826115ef565b6004600083815260200190815260200160002060009054906101000a900473ffffffffffffffffffffffffffffffffffffffff169050919050565b60006108fa82610ca7565b90508073ffffffffffffffffffffffffffffffffffffffff168373ffffffffffffffffffffffffffffffffffffffff160361096a576040517f08c379a0000000000000000000000000000000000000000000000000000000008152600401610961906130a9565b60405180910390fd5b8073ffffffffffffffffffffffffffffffffffffffff1661098961163a565b73ffffffffffffffffffffffffffffffffffffffff1614806109b857506109b7816109b261163a565b6113e4565b5b6109f7576040517f08c379a00000000000000000000000000000000000000000000000000000000081526004016109ee9061313b565b60405180910390fd5b610a018383611642565b505050565b6000600880549050905090565b610a24610a1e61163a565b826116fb565b610a63576040517f08c379a0000000000000000000000000000000000000000000000000000000008152600401610a5a906131cd565b60405180910390fd5b610a6e838383611790565b505050565b6000610a7e83610d71565b8210610abf576040517f08c379a0000000000000000000000000000000000000000000000000000000008152600401610ab69061325f565b60405180910390fd5b600660008473ffffffffffffffffffffffffffffffffffffffff1673ffffffffffffffffffffffffffffffffffffffff168152602001908152602001600020600083815260200190815260200160002054905092915050565b604281565b60126020528060005260406000206000915090505481565b610b5083838360405180602001604052806000815250610f14565b505050565b6000610b5f610a06565b8210610ba0576040517f08c379a0000000000000000000000000000000000000000000000000000000008152600401610b97906132f1565b60405180910390fd5b60088281548110610bb457610bb3613311565b5b90600052602060002001549050919050565b610bce6119f6565b6002600b5403610c13576040517f08c379a0000000000000000000000000000000000000000000000000000000008152600401610c0a9061338c565b60405180910390fd5b6002600b8190555060004790508173ffffffffffffffffffffffffffffffffffffffff166108fc829081150290604051600060405180830381858888f19350505050158015610c66573d6000803e3d6000fd5b50506001600b8190555050565b610c7b6119f6565b80600e8190555050565b610c8d6119f6565b80600f9080519060200190610ca3929190612887565b5050565b6000806002600084815260200190815260200160002060009054906101000a900473ffffffffffffffffffffffffffffffffffffffff169050600073ffffffffffffffffffffffffffffffffffffffff168173ffffffffffffffffffffffffffffffffffffffff1603610d4f576040517f08c379a0000000000000000000000000000000000000000000000000000000008152600401610d46906133f8565b60405180910390fd5b80915050919050565b600d5481565b600c60009054906101000a900460ff1681565b60008073ffffffffffffffffffffffffffffffffffffffff168273ffffffffffffffffffffffffffffffffffffffff1603610de1576040517f08c379a0000000000000000000000000000000000000000000000000000000008152600401610dd89061348a565b60405180910390fd5b600360008373ffffffffffffffffffffffffffffffffffffffff1673ffffffffffffffffffffffffffffffffffffffff168152602001908152602001600020549050919050565b610e306119f6565b610e3a6000611a74565b565b600e5481565b6000600a60009054906101000a900473ffffffffffffffffffffffffffffffffffffffff16905090565b606060018054610e7b90613006565b80601f0160208091040260200160405190810160405280929190818152602001828054610ea790613006565b8015610ef45780601f10610ec957610100808354040283529160200191610ef4565b820191906000526020600020905b815481529060010190602001808311610ed757829003601f168201915b5050505050905090565b610f10610f0961163a565b8383611b3a565b5050565b610f25610f1f61163a565b836116fb565b610f64576040517f08c379a0000000000000000000000000000000000000000000000000000000008152600401610f5b906131cd565b60405180910390fd5b610f7084848484611ca6565b50505050565b60108054610f8390613006565b80601f0160208091040260200160405190810160405280929190818152602001828054610faf90613006565b8015610ffc5780601f10610fd157610100808354040283529160200191610ffc565b820191906000526020600020905b815481529060010190602001808311610fdf57829003601f168201915b505050505081565b606061100f82611d02565b61104e576040517f08c379a00000000000000000000000000000000000000000000000000000000081526004016110459061351c565b60405180910390fd5b600060116000848152602001908152602001600020805461106e90613006565b80601f016020809104026020016040519081016040528092919081815260200182805461109a90613006565b80156110e75780601f106110bc576101008083540402835291602001916110e7565b820191906000526020600020905b8154815290600101906020018083116110ca57829003601f168201915b5050505050905060006110f8611d6e565b9050600081510361110d578192505050611174565b60008251111561114257808260405160200161112a929190613578565b60405160208183030381529060405292505050611174565b8061114c85611e00565b601060405160200161116093929190613630565b604051602081830303815290604052925050505b919050565b6002600b54036111be576040517f08c379a00000000000000000000000000000000000000000000000000000000081526004016111b59061338c565b60405180910390fd5b6002600b819055503373ffffffffffffffffffffffffffffffffffffffff163273ffffffffffffffffffffffffffffffffffffffff1614611234576040517f08c379a000000000000000000000000000000000000000000000000000000000815260040161122b906136ad565b60405180910390fd5b60428161123f610a06565b61124991906136fc565b111561128a576040517f08c379a00000000000000000000000000000000000000000000000000000000081526004016112819061379e565b60405180910390fd5b600c60009054906101000a900460ff166112d9576040517f08c379a00000000000000000000000000000000000000000000000000000000081526004016112d09061380a565b60405180910390fd5b6000811180156112eb5750600e548111155b61132a576040517f08c379a00000000000000000000000000000000000000000000000000000000081526004016113219061389c565b60405180910390fd5b3481600d5461133991906138bc565b111561137a576040517f08c379a000000000000000000000000000000000000000000000000000000000815260040161137190613962565b60405180910390fd5b61138381611f60565b6001600b8190555050565b6113966119f6565b80601090805190602001906113ac929190612887565b5050565b6113b86119f6565b600c60009054906101000a900460ff1615600c60006101000a81548160ff021916908315150217905550565b6000600560008473ffffffffffffffffffffffffffffffffffffffff1673ffffffffffffffffffffffffffffffffffffffff16815260200190815260200160002060008373ffffffffffffffffffffffffffffffffffffffff1673ffffffffffffffffffffffffffffffffffffffff16815260200190815260200160002060009054906101000a900460ff16905092915050565b6114806119f6565b600073ffffffffffffffffffffffffffffffffffffffff168173ffffffffffffffffffffffffffffffffffffffff16036114ef576040517f08c379a00000000000000000000000000000000000000000000000000000000081526004016114e6906139f4565b60405180910390fd5b6114f881611a74565b50565b6115036119f6565b80600d8190555050565b60007f80ac58cd000000000000000000000000000000000000000000000000000000007bffffffffffffffffffffffffffffffffffffffffffffffffffffffff1916827bffffffffffffffffffffffffffffffffffffffffffffffffffffffff191614806115d857507f5b5e139f000000000000000000000000000000000000000000000000000000007bffffffffffffffffffffffffffffffffffffffffffffffffffffffff1916827bffffffffffffffffffffffffffffffffffffffffffffffffffffffff1916145b806115e857506115e782611fff565b5b9050919050565b6115f881611d02565b611637576040517f08c379a000000000000000000000000000000000000000000000000000000000815260040161162e906133f8565b60405180910390fd5b50565b600033905090565b816004600083815260200190815260200160002060006101000a81548173ffffffffffffffffffffffffffffffffffffffff021916908373ffffffffffffffffffffffffffffffffffffffff160217905550808273ffffffffffffffffffffffffffffffffffffffff166116b583610ca7565b73ffffffffffffffffffffffffffffffffffffffff167f8c5be1e5ebec7d5bd14f71427d1e84f3dd0314c0f7b2291e5b200ac8c7c3b92560405160405180910390a45050565b60008061170783610ca7565b90508073ffffffffffffffffffffffffffffffffffffffff168473ffffffffffffffffffffffffffffffffffffffff161480611749575061174881856113e4565b5b8061178757508373ffffffffffffffffffffffffffffffffffffffff1661176f846108a9565b73ffffffffffffffffffffffffffffffffffffffff16145b91505092915050565b8273ffffffffffffffffffffffffffffffffffffffff166117b082610ca7565b73ffffffffffffffffffffffffffffffffffffffff1614611806576040517f08c379a00000000000000000000000000000000000000000000000000000000081526004016117fd90613a86565b60405180910390fd5b600073ffffffffffffffffffffffffffffffffffffffff168273ffffffffffffffffffffffffffffffffffffffff1603611875576040517f08c379a000000000000000000000000000000000000000000000000000000000815260040161186c90613b18565b60405180910390fd5b611880838383612069565b61188b600082611642565b6001600360008573ffffffffffffffffffffffffffffffffffffffff1673ffffffffffffffffffffffffffffffffffffffff16815260200190815260200160002060008282546118db9190613b38565b925050819055506001600360008473ffffffffffffffffffffffffffffffffffffffff1673ffffffffffffffffffffffffffffffffffffffff168152602001908152602001600020600082825461193291906136fc565b92505081905550816002600083815260200190815260200160002060006101000a81548173ffffffffffffffffffffffffffffffffffffffff021916908373ffffffffffffffffffffffffffffffffffffffff160217905550808273ffffffffffffffffffffffffffffffffffffffff168473ffffffffffffffffffffffffffffffffffffffff167fddf252ad1be2c89b69c2b068fc378daa952ba7f163c4a11628f55a4df523b3ef60405160405180910390a46119f183838361217b565b505050565b6119fe61163a565b73ffffffffffffffffffffffffffffffffffffffff16611a1c610e42565b73ffffffffffffffffffffffffffffffffffffffff1614611a72576040517f08c379a0000000000000000000000000000000000000000000000000000000008152600401611a6990613bb8565b60405180910390fd5b565b6000600a60009054906101000a900473ffffffffffffffffffffffffffffffffffffffff16905081600a60006101000a81548173ffffffffffffffffffffffffffffffffffffffff021916908373ffffffffffffffffffffffffffffffffffffffff1602179055508173ffffffffffffffffffffffffffffffffffffffff168173ffffffffffffffffffffffffffffffffffffffff167f8be0079c531659141344cd1fd0a4f28419497f9722a3daafe3b4186f6b6457e060405160405180910390a35050565b8173ffffffffffffffffffffffffffffffffffffffff168373ffffffffffffffffffffffffffffffffffffffff1603611ba8576040517f08c379a0000000000000000000000000000000000000000000000000000000008152600401611b9f90613c24565b60405180910390fd5b80600560008573ffffffffffffffffffffffffffffffffffffffff1673ffffffffffffffffffffffffffffffffffffffff16815260200190815260200160002060008473ffffffffffffffffffffffffffffffffffffffff1673ffffffffffffffffffffffffffffffffffffffff16815260200190815260200160002060006101000a81548160ff0219169083151502179055508173ffffffffffffffffffffffffffffffffffffffff168373ffffffffffffffffffffffffffffffffffffffff167f17307eab39ab6107e8899845ad3d59bd9653f200f220920489ca2b5937696c3183604051611c9991906129de565b60405180910390a3505050565b611cb1848484611790565b611cbd84848484612180565b611cfc576040517f08c379a0000000000000000000000000000000000000000000000000000000008152600401611cf390613cb6565b60405180910390fd5b50505050565b60008073ffffffffffffffffffffffffffffffffffffffff166002600084815260200190815260200160002060009054906101000a900473ffffffffffffffffffffffffffffffffffffffff1673ffffffffffffffffffffffffffffffffffffffff1614159050919050565b6060600f8054611d7d90613006565b80601f0160208091040260200160405190810160405280929190818152602001828054611da990613006565b8015611df65780601f10611dcb57610100808354040283529160200191611df6565b820191906000526020600020905b815481529060010190602001808311611dd957829003601f168201915b5050505050905090565b606060008203611e47576040518060400160405280600181526020017f30000000000000000000000000000000000000000000000000000000000000008152509050611f5b565b600082905060005b60008214611e79578080611e6290613cd6565b915050600a82611e729190613d4d565b9150611e4f565b60008167ffffffffffffffff811115611e9557611e94612c93565b5b6040519080825280601f01601f191660200182016040528015611ec75781602001600182028036833780820191505090505b5090505b60008514611f5457600182611ee09190613b38565b9150600a85611eef9190613d7e565b6030611efb91906136fc565b60f81b818381518110611f1157611f10613311565b5b60200101907effffffffffffffffffffffffffffffffffffffffffffffffffffffffffffff1916908160001a905350600a85611f4d9190613d4d565b9450611ecb565b8093505050505b919050565b60005b81811015611ffb576000611f75610a06565b90506042611f81610a06565b1015611fe757601260003373ffffffffffffffffffffffffffffffffffffffff1673ffffffffffffffffffffffffffffffffffffffff1681526020019081526020016000206000815480929190611fd790613cd6565b9190505550611fe63382612307565b5b508080611ff390613cd6565b915050611f63565b5050565b60007f01ffc9a7000000000000000000000000000000000000000000000000000000007bffffffffffffffffffffffffffffffffffffffffffffffffffffffff1916827bffffffffffffffffffffffffffffffffffffffffffffffffffffffff1916149050919050565b612074838383612325565b600073ffffffffffffffffffffffffffffffffffffffff168373ffffffffffffffffffffffffffffffffffffffff16036120b6576120b18161232a565b6120f5565b8173ffffffffffffffffffffffffffffffffffffffff168373ffffffffffffffffffffffffffffffffffffffff16146120f4576120f38382612373565b5b5b600073ffffffffffffffffffffffffffffffffffffffff168273ffffffffffffffffffffffffffffffffffffffff160361213757612132816124e0565b612176565b8273ffffffffffffffffffffffffffffffffffffffff168273ffffffffffffffffffffffffffffffffffffffff16146121755761217482826125b1565b5b5b505050565b505050565b60006121a18473ffffffffffffffffffffffffffffffffffffffff16612630565b156122fa578373ffffffffffffffffffffffffffffffffffffffff1663150b7a026121ca61163a565b8786866040518563ffffffff1660e01b81526004016121ec9493929190613e04565b6020604051808303816000875af192505050801561222857506040513d601f19601f820116820180604052508101906122259190613e65565b60015b6122aa573d8060008114612258576040519150601f19603f3d011682016040523d82523d6000602084013e61225d565b606091505b5060008151036122a2576040517f08c379a000000000000000000000000000000000000000000000000000000000815260040161229990613cb6565b60405180910390fd5b805181602001fd5b63150b7a0260e01b7bffffffffffffffffffffffffffffffffffffffffffffffffffffffff1916817bffffffffffffffffffffffffffffffffffffffffffffffffffffffff1916149150506122ff565b600190505b949350505050565b612321828260405180602001604052806000815250612653565b5050565b505050565b6008805490506009600083815260200190815260200160002081905550600881908060018154018082558091505060019003906000526020600020016000909190919091505550565b6000600161238084610d71565b61238a9190613b38565b905060006007600084815260200190815260200160002054905081811461246f576000600660008673ffffffffffffffffffffffffffffffffffffffff1673ffffffffffffffffffffffffffffffffffffffff168152602001908152602001600020600084815260200190815260200160002054905080600660008773ffffffffffffffffffffffffffffffffffffffff1673ffffffffffffffffffffffffffffffffffffffff168152602001908152602001600020600084815260200190815260200160002081905550816007600083815260200190815260200160002081905550505b6007600084815260200190815260200160002060009055600660008573ffffffffffffffffffffffffffffffffffffffff1673ffffffffffffffffffffffffffffffffffffffff16815260200190815260200160002060008381526020019081526020016000206000905550505050565b600060016008805490506124f49190613b38565b905060006009600084815260200190815260200160002054905060006008838154811061252457612523613311565b5b90600052602060002001549050806008838154811061254657612545613311565b5b90600052602060002001819055508160096000838152602001908152602001600020819055506009600085815260200190815260200160002060009055600880548061259557612594613e92565b5b6001900381819060005260206000200160009055905550505050565b60006125bc83610d71565b905081600660008573ffffffffffffffffffffffffffffffffffffffff1673ffffffffffffffffffffffffffffffffffffffff168152602001908152602001600020600083815260200190815260200160002081905550806007600084815260200190815260200160002081905550505050565b6000808273ffffffffffffffffffffffffffffffffffffffff163b119050919050565b61265d83836126ae565b61266a6000848484612180565b6126a9576040517f08c379a00000000000000000000000000000000000000000000000000000000081526004016126a090613cb6565b60405180910390fd5b505050565b600073ffffffffffffffffffffffffffffffffffffffff168273ffffffffffffffffffffffffffffffffffffffff160361271d576040517f08c379a000000000000000000000000000000000000000000000000000000000815260040161271490613f0d565b60405180910390fd5b61272681611d02565b15612766576040517f08c379a000000000000000000000000000000000000000000000000000000000815260040161275d90613f79565b60405180910390fd5b61277260008383612069565b6001600360008473ffffffffffffffffffffffffffffffffffffffff1673ffffffffffffffffffffffffffffffffffffffff16815260200190815260200160002060008282546127c291906136fc565b92505081905550816002600083815260200190815260200160002060006101000a81548173ffffffffffffffffffffffffffffffffffffffff021916908373ffffffffffffffffffffffffffffffffffffffff160217905550808273ffffffffffffffffffffffffffffffffffffffff16600073ffffffffffffffffffffffffffffffffffffffff167fddf252ad1be2c89b69c2b068fc378daa952ba7f163c4a11628f55a4df523b3ef60405160405180910390a46128836000838361217b565b5050565b82805461289390613006565b90600052602060002090601f0160209004810192826128b557600085556128fc565b82601f106128ce57805160ff19168380011785556128fc565b828001600101855582156128fc579182015b828111156128fb5782518255916020019190600101906128e0565b5b509050612909919061290d565b5090565b5b8082111561292657600081600090555060010161290e565b5090565b6000604051905090565b600080fd5b600080fd5b60007fffffffff0000000000000000000000000000000000000000000000000000000082169050919050565b6129738161293e565b811461297e57600080fd5b50565b6000813590506129908161296a565b92915050565b6000602082840312156129ac576129ab612934565b5b60006129ba84828501612981565b91505092915050565b60008115159050919050565b6129d8816129c3565b82525050565b60006020820190506129f360008301846129cf565b92915050565b600081519050919050565b600082825260208201905092915050565b60005b83811015612a33578082015181840152602081019050612a18565b83811115612a42576000848401525b50505050565b6000601f19601f8301169050919050565b6000612a64826129f9565b612a6e8185612a04565b9350612a7e818560208601612a15565b612a8781612a48565b840191505092915050565b60006020820190508181036000830152612aac8184612a59565b905092915050565b6000819050919050565b612ac781612ab4565b8114612ad257600080fd5b50565b600081359050612ae481612abe565b92915050565b600060208284031215612b0057612aff612934565b5b6000612b0e84828501612ad5565b91505092915050565b600073ffffffffffffffffffffffffffffffffffffffff82169050919050565b6000612b4282612b17565b9050919050565b612b5281612b37565b82525050565b6000602082019050612b6d6000830184612b49565b92915050565b612b7c81612b37565b8114612b8757600080fd5b50565b600081359050612b9981612b73565b92915050565b60008060408385031215612bb657612bb5612934565b5b6000612bc485828601612b8a565b9250506020612bd585828601612ad5565b9150509250929050565b612be881612ab4565b82525050565b6000602082019050612c036000830184612bdf565b92915050565b600080600060608486031215612c2257612c21612934565b5b6000612c3086828701612b8a565b9350506020612c4186828701612b8a565b9250506040612c5286828701612ad5565b9150509250925092565b600060208284031215612c7257612c71612934565b5b6000612c8084828501612b8a565b91505092915050565b600080fd5b600080fd5b7f4e487b7100000000000000000000000000000000000000000000000000000000600052604160045260246000fd5b612ccb82612a48565b810181811067ffffffffffffffff82111715612cea57612ce9612c93565b5b80604052505050565b6000612cfd61292a565b9050612d098282612cc2565b919050565b600067ffffffffffffffff821115612d2957612d28612c93565b5b612d3282612a48565b9050602081019050919050565b82818337600083830152505050565b6000612d61612d5c84612d0e565b612cf3565b905082815260208101848484011115612d7d57612d7c612c8e565b5b612d88848285612d3f565b509392505050565b600082601f830112612da557612da4612c89565b5b8135612db5848260208601612d4e565b91505092915050565b600060208284031215612dd457612dd3612934565b5b600082013567ffffffffffffffff811115612df257612df1612939565b5b612dfe84828501612d90565b91505092915050565b612e10816129c3565b8114612e1b57600080fd5b50565b600081359050612e2d81612e07565b92915050565b60008060408385031215612e4a57612e49612934565b5b6000612e5885828601612b8a565b9250506020612e6985828601612e1e565b9150509250929050565b600067ffffffffffffffff821115612e8e57612e8d612c93565b5b612e9782612a48565b9050602081019050919050565b6000612eb7612eb284612e73565b612cf3565b905082815260208101848484011115612ed357612ed2612c8e565b5b612ede848285612d3f565b509392505050565b600082601f830112612efb57612efa612c89565b5b8135612f0b848260208601612ea4565b91505092915050565b60008060008060808587031215612f2e57612f2d612934565b5b6000612f3c87828801612b8a565b9450506020612f4d87828801612b8a565b9350506040612f5e87828801612ad5565b925050606085013567ffffffffffffffff811115612f7f57612f7e612939565b5b612f8b87828801612ee6565b91505092959194509250565b60008060408385031215612fae57612fad612934565b5b6000612fbc85828601612b8a565b9250506020612fcd85828601612b8a565b9150509250929050565b7f4e487b7100000000000000000000000000000000000000000000000000000000600052602260045260246000fd5b6000600282049050600182168061301e57607f821691505b60208210810361303157613030612fd7565b5b50919050565b7f4552433732313a20617070726f76616c20746f2063757272656e74206f776e6560008201527f7200000000000000000000000000000000000000000000000000000000000000602082015250565b6000613093602183612a04565b915061309e82613037565b604082019050919050565b600060208201905081810360008301526130c281613086565b9050919050565b7f4552433732313a20617070726f76652063616c6c6572206973206e6f7420746f60008201527f6b656e206f776e6572206e6f7220617070726f76656420666f7220616c6c0000602082015250565b6000613125603e83612a04565b9150613130826130c9565b604082019050919050565b6000602082019050818103600083015261315481613118565b9050919050565b7f4552433732313a2063616c6c6572206973206e6f7420746f6b656e206f776e6560008201527f72206e6f7220617070726f766564000000000000000000000000000000000000602082015250565b60006131b7602e83612a04565b91506131c28261315b565b604082019050919050565b600060208201905081810360008301526131e6816131aa565b9050919050565b7f455243373231456e756d657261626c653a206f776e657220696e646578206f7560008201527f74206f6620626f756e6473000000000000000000000000000000000000000000602082015250565b6000613249602b83612a04565b9150613254826131ed565b604082019050919050565b600060208201905081810360008301526132788161323c565b9050919050565b7f455243373231456e756d657261626c653a20676c6f62616c20696e646578206f60008201527f7574206f6620626f756e64730000000000000000000000000000000000000000602082015250565b60006132db602c83612a04565b91506132e68261327f565b604082019050919050565b6000602082019050818103600083015261330a816132ce565b9050919050565b7f4e487b7100000000000000000000000000000000000000000000000000000000600052603260045260246000fd5b7f5265656e7472616e637947756172643a207265656e7472616e742063616c6c00600082015250565b6000613376601f83612a04565b915061338182613340565b602082019050919050565b600060208201905081810360008301526133a581613369565b9050919050565b7f4552433732313a20696e76616c696420746f6b656e2049440000000000000000600082015250565b60006133e2601883612a04565b91506133ed826133ac565b602082019050919050565b60006020820190508181036000830152613411816133d5565b9050919050565b7f4552433732313a2061646472657373207a65726f206973206e6f74206120766160008201527f6c6964206f776e65720000000000000000000000000000000000000000000000602082015250565b6000613474602983612a04565b915061347f82613418565b604082019050919050565b600060208201905081810360008301526134a381613467565b9050919050565b7f4552433732314d657461646174613a2055524920717565727920666f72206e6f60008201527f6e6578697374656e7420746f6b656e0000000000000000000000000000000000602082015250565b6000613506602f83612a04565b9150613511826134aa565b604082019050919050565b60006020820190508181036000830152613535816134f9565b9050919050565b600081905092915050565b6000613552826129f9565b61355c818561353c565b935061356c818560208601612a15565b80840191505092915050565b60006135848285613547565b91506135908284613547565b91508190509392505050565b60008190508160005260206000209050919050565b600081546135be81613006565b6135c8818661353c565b945060018216600081146135e357600181146135f457613627565b60ff19831686528186019350613627565b6135fd8561359c565b60005b8381101561361f57815481890152600182019150602081019050613600565b838801955050505b50505092915050565b600061363c8286613547565b91506136488285613547565b915061365482846135b1565b9150819050949350505050565b7f5468652063616c6c657220697320616e6f7468657220636f6e74726163740000600082015250565b6000613697601e83612a04565b91506136a282613661565b602082019050919050565b600060208201905081810360008301526136c68161368a565b9050919050565b7f4e487b7100000000000000000000000000000000000000000000000000000000600052601160045260246000fd5b600061370782612ab4565b915061371283612ab4565b9250827fffffffffffffffffffffffffffffffffffffffffffffffffffffffffffffffff03821115613747576137466136cd565b5b828201905092915050565b7f536f6c64204f7574210000000000000000000000000000000000000000000000600082015250565b6000613788600983612a04565b915061379382613752565b602082019050919050565b600060208201905081810360008301526137b78161377b565b9050919050565b7f53616c65206d7573742062652061637469766520746f206d696e74204d63636d600082015250565b60006137f4602083612a04565b91506137ff826137be565b602082019050919050565b60006020820190508181036000830152613823816137e7565b9050919050565b7f457863656564656420746865206d6178696d756d20707572636861736520717560008201527f616e746974790000000000000000000000000000000000000000000000000000602082015250565b6000613886602683612a04565b91506138918261382a565b604082019050919050565b600060208201905081810360008301526138b581613879565b9050919050565b60006138c782612ab4565b91506138d283612ab4565b9250817fffffffffffffffffffffffffffffffffffffffffffffffffffffffffffffffff048311821515161561390b5761390a6136cd565b5b828202905092915050565b7f4e6f7420656e6f7567682065746865722073656e740000000000000000000000600082015250565b600061394c601583612a04565b915061395782613916565b602082019050919050565b6000602082019050818103600083015261397b8161393f565b9050919050565b7f4f776e61626c653a206e6577206f776e657220697320746865207a65726f206160008201527f6464726573730000000000000000000000000000000000000000000000000000602082015250565b60006139de602683612a04565b91506139e982613982565b604082019050919050565b60006020820190508181036000830152613a0d816139d1565b9050919050565b7f4552433732313a207472616e736665722066726f6d20696e636f72726563742060008201527f6f776e6572000000000000000000000000000000000000000000000000000000602082015250565b6000613a70602583612a04565b9150613a7b82613a14565b604082019050919050565b60006020820190508181036000830152613a9f81613a63565b9050919050565b7f4552433732313a207472616e7366657220746f20746865207a65726f2061646460008201527f7265737300000000000000000000000000000000000000000000000000000000602082015250565b6000613b02602483612a04565b9150613b0d82613aa6565b604082019050919050565b60006020820190508181036000830152613b3181613af5565b9050919050565b6000613b4382612ab4565b9150613b4e83612ab4565b925082821015613b6157613b606136cd565b5b828203905092915050565b7f4f776e61626c653a2063616c6c6572206973206e6f7420746865206f776e6572600082015250565b6000613ba2602083612a04565b9150613bad82613b6c565b602082019050919050565b60006020820190508181036000830152613bd181613b95565b9050919050565b7f4552433732313a20617070726f766520746f2063616c6c657200000000000000600082015250565b6000613c0e601983612a04565b9150613c1982613bd8565b602082019050919050565b60006020820190508181036000830152613c3d81613c01565b9050919050565b7f4552433732313a207472616e7366657220746f206e6f6e20455243373231526560008201527f63656976657220696d706c656d656e7465720000000000000000000000000000602082015250565b6000613ca0603283612a04565b9150613cab82613c44565b604082019050919050565b60006020820190508181036000830152613ccf81613c93565b9050919050565b6000613ce182612ab4565b91507fffffffffffffffffffffffffffffffffffffffffffffffffffffffffffffffff8203613d1357613d126136cd565b5b600182019050919050565b7f4e487b7100000000000000000000000000000000000000000000000000000000600052601260045260246000fd5b6000613d5882612ab4565b9150613d6383612ab4565b925082613d7357613d72613d1e565b5b828204905092915050565b6000613d8982612ab4565b9150613d9483612ab4565b925082613da457613da3613d1e565b5b828206905092915050565b600081519050919050565b600082825260208201905092915050565b6000613dd682613daf565b613de08185613dba565b9350613df0818560208601612a15565b613df981612a48565b840191505092915050565b6000608082019050613e196000830187612b49565b613e266020830186612b49565b613e336040830185612bdf565b8181036060830152613e458184613dcb565b905095945050505050565b600081519050613e5f8161296a565b92915050565b600060208284031215613e7b57613e7a612934565b5b6000613e8984828501613e50565b91505092915050565b7f4e487b7100000000000000000000000000000000000000000000000000000000600052603160045260246000fd5b7f4552433732313a206d696e7420746f20746865207a65726f2061646472657373600082015250565b6000613ef7602083612a04565b9150613f0282613ec1565b602082019050919050565b60006020820190508181036000830152613f2681613eea565b9050919050565b7f4552433732313a20746f6b656e20616c7265616479206d696e74656400000000600082015250565b6000613f63601c83612a04565b9150613f6e82613f2d565b602082019050919050565b60006020820190508181036000830152613f9281613f56565b905091905056fea26469706673582212209f42cc7f9f5d6872f0f812bedaad56d66d3b4db22c3f1ddd5eaa26442eb34a0264736f6c634300080d0033",
    "linkReferences": {},
    "deployedLinkReferences": {}
}